{
  "contractName": "Marketplace",
  "abi": [
    {
      "inputs": [
        {
          "internalType": "address",
          "name": "_addressContractMyNFT",
          "type": "address"
        },
        {
          "internalType": "address",
          "name": "_addressContractERC20",
          "type": "address"
        }
      ],
      "stateMutability": "nonpayable",
      "type": "constructor"
    },
    {
      "anonymous": false,
      "inputs": [
        {
          "indexed": false,
          "internalType": "address",
          "name": "Buyer",
          "type": "address"
        },
        {
          "indexed": false,
          "internalType": "uint256",
          "name": "idToken",
          "type": "uint256"
        },
        {
          "indexed": false,
          "internalType": "uint256",
          "name": "priceToken",
          "type": "uint256"
        }
      ],
      "name": "Buyer",
      "type": "event"
    },
    {
      "anonymous": false,
      "inputs": [
        {
          "indexed": true,
          "internalType": "address",
          "name": "previousOwner",
          "type": "address"
        },
        {
          "indexed": true,
          "internalType": "address",
          "name": "newOwner",
          "type": "address"
        }
      ],
      "name": "OwnershipTransferred",
      "type": "event"
    },
    {
      "anonymous": false,
      "inputs": [
        {
          "indexed": false,
          "internalType": "address",
          "name": "Saler",
          "type": "address"
        },
        {
          "indexed": false,
          "internalType": "uint256",
          "name": "idToken",
          "type": "uint256"
        },
        {
          "indexed": false,
          "internalType": "uint256",
          "name": "priceToken",
          "type": "uint256"
        }
      ],
      "name": "Saler",
      "type": "event"
    },
    {
      "inputs": [],
      "name": "owner",
      "outputs": [
        {
          "internalType": "address",
          "name": "",
          "type": "address"
        }
      ],
      "stateMutability": "view",
      "type": "function"
    },
    {
      "inputs": [],
      "name": "renounceOwnership",
      "outputs": [],
      "stateMutability": "nonpayable",
      "type": "function"
    },
    {
      "inputs": [
        {
          "internalType": "address",
          "name": "newOwner",
          "type": "address"
        }
      ],
      "name": "transferOwnership",
      "outputs": [],
      "stateMutability": "nonpayable",
      "type": "function"
    },
    {
      "inputs": [
        {
          "internalType": "uint256",
          "name": "_tokenId",
          "type": "uint256"
        }
      ],
      "name": "getTokenInfo",
      "outputs": [
        {
          "internalType": "address",
          "name": "",
          "type": "address"
        },
        {
          "internalType": "uint256",
          "name": "",
          "type": "uint256"
        },
        {
          "internalType": "bool",
          "name": "",
          "type": "bool"
        }
      ],
      "stateMutability": "view",
      "type": "function"
    },
    {
      "inputs": [
        {
          "internalType": "uint256",
          "name": "_tokenId",
          "type": "uint256"
        },
        {
          "internalType": "uint256",
          "name": "_price",
          "type": "uint256"
        }
      ],
      "name": "saleNFT",
      "outputs": [],
      "stateMutability": "nonpayable",
      "type": "function"
    },
    {
      "inputs": [
        {
          "internalType": "uint256",
          "name": "_tokenId",
          "type": "uint256"
        }
      ],
      "name": "buyToken",
      "outputs": [],
      "stateMutability": "nonpayable",
      "type": "function"
    }
  ],
  "bytecode": "0x60806040523480156200001157600080fd5b50604051620019c7380380620019c7833981810160405281019062000037919062000190565b6000620000496200017160201b60201c565b9050806000806101000a81548173ffffffffffffffffffffffffffffffffffffffff021916908373ffffffffffffffffffffffffffffffffffffffff1602179055508073ffffffffffffffffffffffffffffffffffffffff16600073ffffffffffffffffffffffffffffffffffffffff167f8be0079c531659141344cd1fd0a4f28419497f9722a3daafe3b4186f6b6457e060405160405180910390a35081600160006101000a81548173ffffffffffffffffffffffffffffffffffffffff021916908373ffffffffffffffffffffffffffffffffffffffff16021790555080600260006101000a81548173ffffffffffffffffffffffffffffffffffffffff021916908373ffffffffffffffffffffffffffffffffffffffff16021790555050506200021f565b600033905090565b6000815190506200018a8162000205565b92915050565b60008060408385031215620001a457600080fd5b6000620001b48582860162000179565b9250506020620001c78582860162000179565b9150509250929050565b6000620001de82620001e5565b9050919050565b600073ffffffffffffffffffffffffffffffffffffffff82169050919050565b6200021081620001d1565b81146200021c57600080fd5b50565b611798806200022f6000396000f3fe608060405234801561001057600080fd5b50600436106100625760003560e01c806326d8fde2146100675780632d296bf114610083578063715018a61461009f5780638c7a63ae146100a95780638da5cb5b146100db578063f2fde38b146100f9575b600080fd5b610081600480360381019061007c91906111a2565b610115565b005b61009d6004803603810190610098919061113d565b610506565b005b6100a7610ba6565b005b6100c360048036038101906100be919061113d565b610ce0565b6040516100d293929190611492565b60405180910390f35b6100e3610e21565b6040516100f09190611440565b60405180910390f35b610113600480360381019061010e91906110c2565b610e4a565b005b61011d610ff3565b73ffffffffffffffffffffffffffffffffffffffff1663081812fc836040518263ffffffff1660e01b81526004016101559190611600565b60206040518083038186803b15801561016d57600080fd5b505afa158015610181573d6000803e3d6000fd5b505050506040513d601f19601f820116820180604052508101906101a591906110eb565b73ffffffffffffffffffffffffffffffffffffffff163073ffffffffffffffffffffffffffffffffffffffff1614610212576040517f08c379a000000000000000000000000000000000000000000000000000000000815260040161020990611520565b60405180910390fd5b61021a610ff3565b73ffffffffffffffffffffffffffffffffffffffff16634f558e79836040518263ffffffff1660e01b81526004016102529190611600565b60206040518083038186803b15801561026a57600080fd5b505afa15801561027e573d6000803e3d6000fd5b505050506040513d601f19601f820116820180604052508101906102a29190611114565b6102e1576040517f08c379a00000000000000000000000000000000000000000000000000000000081526004016102d890611540565b60405180910390fd5b3373ffffffffffffffffffffffffffffffffffffffff16610300610ff3565b73ffffffffffffffffffffffffffffffffffffffff16636352211e846040518263ffffffff1660e01b81526004016103389190611600565b60206040518083038186803b15801561035057600080fd5b505afa158015610364573d6000803e3d6000fd5b505050506040513d601f19601f8201168201806040525081019061038891906110eb565b73ffffffffffffffffffffffffffffffffffffffff16146103de576040517f08c379a00000000000000000000000000000000000000000000000000000000081526004016103d5906115e0565b60405180910390fd5b6103e6610ff3565b73ffffffffffffffffffffffffffffffffffffffff16636096fd63838360016040518463ffffffff1660e01b81526004016104239392919061167b565b600060405180830381600087803b15801561043d57600080fd5b505af1158015610451573d6000803e3d6000fd5b5050505061045d610ff3565b73ffffffffffffffffffffffffffffffffffffffff1663ee7d4917836040518263ffffffff1660e01b81526004016104959190611600565b600060405180830381600087803b1580156104af57600080fd5b505af11580156104c3573d6000803e3d6000fd5b505050507f2275f6127f341987ce3dcc04ce49dcd4b64b030932695d2457c8bef567792be93383836040516104fa939291906114c9565b60405180910390a15050565b6000610510610ff3565b73ffffffffffffffffffffffffffffffffffffffff16636352211e836040518263ffffffff1660e01b81526004016105489190611600565b60206040518083038186803b15801561056057600080fd5b505afa158015610574573d6000803e3d6000fd5b505050506040513d601f19601f8201168201806040525081019061059891906110eb565b90506000806105a684610ce0565b9250925050600073ffffffffffffffffffffffffffffffffffffffff163373ffffffffffffffffffffffffffffffffffffffff161415801561061457503073ffffffffffffffffffffffffffffffffffffffff163373ffffffffffffffffffffffffffffffffffffffff1614155b610653576040517f08c379a000000000000000000000000000000000000000000000000000000000815260040161064a906115a0565b60405180910390fd5b61065b610ff3565b73ffffffffffffffffffffffffffffffffffffffff16634f558e79856040518263ffffffff1660e01b81526004016106939190611600565b60206040518083038186803b1580156106ab57600080fd5b505afa1580156106bf573d6000803e3d6000fd5b505050506040513d601f19601f820116820180604052508101906106e39190611114565b610722576040517f08c379a000000000000000000000000000000000000000000000000000000000815260040161071990611560565b60405180910390fd5b6001151581151514610769576040517f08c379a000000000000000000000000000000000000000000000000000000000815260040161076090611580565b60405180910390fd5b610771611022565b73ffffffffffffffffffffffffffffffffffffffff166323b872dd3385856040518463ffffffff1660e01b81526004016107ad9392919061145b565b602060405180830381600087803b1580156107c757600080fd5b505af11580156107db573d6000803e3d6000fd5b505050506040513d601f19601f820116820180604052508101906107ff9190611114565b50610808610ff3565b73ffffffffffffffffffffffffffffffffffffffff166342842e0e61082b610ff3565b73ffffffffffffffffffffffffffffffffffffffff16636352211e876040518263ffffffff1660e01b81526004016108639190611600565b60206040518083038186803b15801561087b57600080fd5b505afa15801561088f573d6000803e3d6000fd5b505050506040513d601f19601f820116820180604052508101906108b391906110eb565b33876040518463ffffffff1660e01b81526004016108d39392919061145b565b600060405180830381600087803b1580156108ed57600080fd5b505af1158015610901573d6000803e3d6000fd5b5050505061090d610ff3565b73ffffffffffffffffffffffffffffffffffffffff16636096fd63856000806040518463ffffffff1660e01b815260040161094a93929190611644565b600060405180830381600087803b15801561096457600080fd5b505af1158015610978573d6000803e3d6000fd5b50505050610984610ff3565b73ffffffffffffffffffffffffffffffffffffffff1663cbac1579856109a8610ff3565b73ffffffffffffffffffffffffffffffffffffffff16636352211e886040518263ffffffff1660e01b81526004016109e09190611600565b60206040518083038186803b1580156109f857600080fd5b505afa158015610a0c573d6000803e3d6000fd5b505050506040513d601f19601f82011682018060405250810190610a3091906110eb565b6040518363ffffffff1660e01b8152600401610a4d92919061161b565b600060405180830381600087803b158015610a6757600080fd5b505af1158015610a7b573d6000803e3d6000fd5b50505050610a87610ff3565b73ffffffffffffffffffffffffffffffffffffffff1663ba109bfc85336040518363ffffffff1660e01b8152600401610ac192919061161b565b600060405180830381600087803b158015610adb57600080fd5b505af1158015610aef573d6000803e3d6000fd5b50505050610afb610ff3565b73ffffffffffffffffffffffffffffffffffffffff1663df4951c0856040518263ffffffff1660e01b8152600401610b339190611600565b600060405180830381600087803b158015610b4d57600080fd5b505af1158015610b61573d6000803e3d6000fd5b505050507fd9e780567a58b8d3eb1b06731509d9f11c1bf0705247465a1160c070887d3d62338584604051610b98939291906114c9565b60405180910390a150505050565b610bae611051565b73ffffffffffffffffffffffffffffffffffffffff16610bcc610e21565b73ffffffffffffffffffffffffffffffffffffffff1614610c22576040517f08c379a0000000000000000000000000000000000000000000000000000000008152600401610c19906115c0565b60405180910390fd5b600073ffffffffffffffffffffffffffffffffffffffff1660008054906101000a900473ffffffffffffffffffffffffffffffffffffffff1673ffffffffffffffffffffffffffffffffffffffff167f8be0079c531659141344cd1fd0a4f28419497f9722a3daafe3b4186f6b6457e060405160405180910390a360008060006101000a81548173ffffffffffffffffffffffffffffffffffffffff021916908373ffffffffffffffffffffffffffffffffffffffff160217905550565b600080600080610cee610ff3565b73ffffffffffffffffffffffffffffffffffffffff16636352211e866040518263ffffffff1660e01b8152600401610d269190611600565b60206040518083038186803b158015610d3e57600080fd5b505afa158015610d52573d6000803e3d6000fd5b505050506040513d601f19601f82011682018060405250810190610d7691906110eb565b9050600080610d83610ff3565b73ffffffffffffffffffffffffffffffffffffffff16632831f2f4886040518263ffffffff1660e01b8152600401610dbb9190611600565b604080518083038186803b158015610dd257600080fd5b505afa158015610de6573d6000803e3d6000fd5b505050506040513d601f19601f82011682018060405250810190610e0a9190611166565b915091508282829550955095505050509193909250565b60008060009054906101000a900473ffffffffffffffffffffffffffffffffffffffff16905090565b610e52611051565b73ffffffffffffffffffffffffffffffffffffffff16610e70610e21565b73ffffffffffffffffffffffffffffffffffffffff1614610ec6576040517f08c379a0000000000000000000000000000000000000000000000000000000008152600401610ebd906115c0565b60405180910390fd5b600073ffffffffffffffffffffffffffffffffffffffff168173ffffffffffffffffffffffffffffffffffffffff161415610f36576040517f08c379a0000000000000000000000000000000000000000000000000000000008152600401610f2d90611500565b60405180910390fd5b8073ffffffffffffffffffffffffffffffffffffffff1660008054906101000a900473ffffffffffffffffffffffffffffffffffffffff1673ffffffffffffffffffffffffffffffffffffffff167f8be0079c531659141344cd1fd0a4f28419497f9722a3daafe3b4186f6b6457e060405160405180910390a3806000806101000a81548173ffffffffffffffffffffffffffffffffffffffff021916908373ffffffffffffffffffffffffffffffffffffffff16021790555050565b600080600160009054906101000a900473ffffffffffffffffffffffffffffffffffffffff1690508091505090565b600080600260009054906101000a900473ffffffffffffffffffffffffffffffffffffffff1690508091505090565b600033905090565b6000813590506110688161171d565b92915050565b60008151905061107d8161171d565b92915050565b60008151905061109281611734565b92915050565b6000813590506110a78161174b565b92915050565b6000815190506110bc8161174b565b92915050565b6000602082840312156110d457600080fd5b60006110e284828501611059565b91505092915050565b6000602082840312156110fd57600080fd5b600061110b8482850161106e565b91505092915050565b60006020828403121561112657600080fd5b600061113484828501611083565b91505092915050565b60006020828403121561114f57600080fd5b600061115d84828501611098565b91505092915050565b6000806040838503121561117957600080fd5b6000611187858286016110ad565b925050602061119885828601611083565b9150509250929050565b600080604083850312156111b557600080fd5b60006111c385828601611098565b92505060206111d485828601611098565b9150509250929050565b6111e7816116c3565b82525050565b6111f6816116d5565b82525050565b6112058161170b565b82525050565b60006112186026836116b2565b91507f4f776e61626c653a206e6577206f776e657220697320746865207a65726f206160008301527f64647265737300000000000000000000000000000000000000000000000000006020830152604082019050919050565b600061127e6017836116b2565b91507f546f6b656e206973206e6f7420617070726f76656420210000000000000000006000830152602082019050919050565b60006112be6016836116b2565b91507f20546f6b656e206973206e6f74206578697374732021000000000000000000006000830152602082019050919050565b60006112fe6015836116b2565b91507f546f6b656e206973206e6f7420657869737473202100000000000000000000006000830152602082019050919050565b600061133e6015836116b2565b91507f546f6b656e206973206e6f742073616c65206e6f7700000000000000000000006000830152602082019050919050565b600061137e6017836116b2565b91507f496e76616c696420746f6b656e206164647265737320210000000000000000006000830152602082019050919050565b60006113be6020836116b2565b91507f4f776e61626c653a2063616c6c6572206973206e6f7420746865206f776e65726000830152602082019050919050565b60006113fe6016836116b2565b91507f20546f6b656e206973206e6f74206f776e6564202120000000000000000000006000830152602082019050919050565b61143a81611701565b82525050565b600060208201905061145560008301846111de565b92915050565b600060608201905061147060008301866111de565b61147d60208301856111de565b61148a6040830184611431565b949350505050565b60006060820190506114a760008301866111de565b6114b46020830185611431565b6114c160408301846111ed565b949350505050565b60006060820190506114de60008301866111de565b6114eb6020830185611431565b6114f86040830184611431565b949350505050565b600060208201905081810360008301526115198161120b565b9050919050565b6000602082019050818103600083015261153981611271565b9050919050565b60006020820190508181036000830152611559816112b1565b9050919050565b60006020820190508181036000830152611579816112f1565b9050919050565b6000602082019050818103600083015261159981611331565b9050919050565b600060208201905081810360008301526115b981611371565b9050919050565b600060208201905081810360008301526115d9816113b1565b9050919050565b600060208201905081810360008301526115f9816113f1565b9050919050565b60006020820190506116156000830184611431565b92915050565b60006040820190506116306000830185611431565b61163d60208301846111de565b9392505050565b60006060820190506116596000830186611431565b61166660208301856111fc565b61167360408301846111ed565b949350505050565b60006060820190506116906000830186611431565b61169d6020830185611431565b6116aa60408301846111ed565b949350505050565b600082825260208201905092915050565b60006116ce826116e1565b9050919050565b60008115159050919050565b600073ffffffffffffffffffffffffffffffffffffffff82169050919050565b6000819050919050565b600061171682611701565b9050919050565b611726816116c3565b811461173157600080fd5b50565b61173d816116d5565b811461174857600080fd5b50565b61175481611701565b811461175f57600080fd5b5056fea264697066735822122033b05eecfa745ee481e78ed71b4c3727c968f71822aa8706680b62237ccc811264736f6c63430008000033",
  "immutableReferences": {},
  "source": "// SPDX-License-Identifier: MIT\npragma solidity ^0.8.0;\n\nimport \"@openzeppelin/contracts/access/Ownable.sol\";\nimport \"./ERC20Token.sol\";\nimport \"./MyNFT.sol\";\n\ncontract  Marketplace is Ownable{\n    event Saler(address Saler, uint idToken, uint priceToken);\n    event Buyer(address Buyer, uint idToken, uint priceToken);\n    \n    address addressContractMyNFT;\n    address addressContractERC20;\n    \n\n    constructor(address _addressContractMyNFT, address _addressContractERC20) {\n        addressContractMyNFT = _addressContractMyNFT;\n        addressContractERC20 = _addressContractERC20;\n    }\n    \n    //call MyNFT\n    function callContractMyNFT() private view returns (MyNFT){\n        MyNFT nft = MyNFT(addressContractMyNFT);\n        return nft;\n    }\n    \n    // call contract tokenERC20\n    function callContractERC20() private view returns (TokenFactory){\n        TokenFactory erc20 = TokenFactory(addressContractERC20);\n        return erc20;\n    }\n    \n    function getTokenInfo(uint _tokenId) public view returns(address, uint, bool){\n        address owner = callContractMyNFT().ownerOf(_tokenId); \n        (uint price, bool sale) = callContractMyNFT().forSale(_tokenId);\n        return (owner, price, sale);\n    }\n    \n    // setPrice and SaleNFT\n    function saleNFT(uint _tokenId, uint _price) public\n    {\n        require(address(this) == callContractMyNFT().getApproved(_tokenId), \"Token is not approved !\" );\n        require(callContractMyNFT().exists(_tokenId), \" Token is not exists !\");\n        require(callContractMyNFT().ownerOf(_tokenId) == msg.sender, \" Token is not owned ! \");\n        callContractMyNFT().setStatus(_tokenId, _price ,true);\n        callContractMyNFT().addListIdSale(_tokenId);\n        emit Saler(msg.sender,_tokenId, _price);\n    }\n    \n    //  Buy NFT\n    function buyToken(uint _tokenId) public\n    {\n        address owner = callContractMyNFT().ownerOf(_tokenId);\n        (,uint price, bool sale) = getTokenInfo(_tokenId);\n        require(msg.sender != address(0) && msg.sender != address(this) , \"Invalid token address !\");\n        require(callContractMyNFT().exists(_tokenId),\"Token is not exists !\");\n        require(sale == true, \"Token is not sale now\");\n        callContractERC20().transferFrom(msg.sender, owner, price);\n        callContractMyNFT().safeTransferFrom(callContractMyNFT().ownerOf(_tokenId), msg.sender, _tokenId);\n        callContractMyNFT().setStatus(_tokenId, 0, false);\n        callContractMyNFT().removeListIdOfOwner(_tokenId, callContractMyNFT().ownerOf(_tokenId));\n        callContractMyNFT().addListIdOfOwner(_tokenId, msg.sender);\n        callContractMyNFT().removeListIdSale(_tokenId);\n        emit Buyer(msg.sender ,_tokenId, price);\n    }\n}",
  "sourcePath": "/home/tungdaik/Desktop/Demo/nft_web3/contracts/Market.sol",
  "compiler": {
    "name": "solc",
    "version": "0.8.0+commit.c7dfd78e.Emscripten.clang"
  },
  "schemaVersion": "3.4.1",
  "updatedAt": "2021-06-01T08:45:33.135Z",
  "devdoc": {
    "kind": "dev",
    "methods": {
      "owner()": {
        "details": "Returns the address of the current owner."
      },
      "renounceOwnership()": {
        "details": "Leaves the contract without owner. It will not be possible to call `onlyOwner` functions anymore. Can only be called by the current owner. NOTE: Renouncing ownership will leave the contract without an owner, thereby removing any functionality that is only available to the owner."
      },
      "transferOwnership(address)": {
        "details": "Transfers ownership of the contract to a new account (`newOwner`). Can only be called by the current owner."
      }
    },
    "version": 1
  },
  "userdoc": {
    "kind": "user",
    "methods": {},
    "version": 1
  }
}