{
  "contractName": "Marketplace",
  "abi": [
    {
      "inputs": [
        {
          "internalType": "address",
          "name": "_addressContractMyNFT",
          "type": "address"
        },
        {
          "internalType": "address",
          "name": "_addressContractERC20",
          "type": "address"
        }
      ],
      "stateMutability": "nonpayable",
      "type": "constructor"
    },
    {
      "anonymous": false,
      "inputs": [
        {
          "indexed": false,
          "internalType": "address",
          "name": "Buyer",
          "type": "address"
        },
        {
          "indexed": false,
          "internalType": "uint256",
          "name": "idToken",
          "type": "uint256"
        },
        {
          "indexed": false,
          "internalType": "uint256",
          "name": "priceToken",
          "type": "uint256"
        }
      ],
      "name": "Buyer",
      "type": "event"
    },
    {
      "anonymous": false,
      "inputs": [
        {
          "indexed": true,
          "internalType": "address",
          "name": "previousOwner",
          "type": "address"
        },
        {
          "indexed": true,
          "internalType": "address",
          "name": "newOwner",
          "type": "address"
        }
      ],
      "name": "OwnershipTransferred",
      "type": "event"
    },
    {
      "anonymous": false,
      "inputs": [
        {
          "indexed": false,
          "internalType": "address",
          "name": "Saler",
          "type": "address"
        },
        {
          "indexed": false,
          "internalType": "uint256",
          "name": "idToken",
          "type": "uint256"
        },
        {
          "indexed": false,
          "internalType": "uint256",
          "name": "priceToken",
          "type": "uint256"
        }
      ],
      "name": "Saler",
      "type": "event"
    },
    {
      "inputs": [],
      "name": "owner",
      "outputs": [
        {
          "internalType": "address",
          "name": "",
          "type": "address"
        }
      ],
      "stateMutability": "view",
      "type": "function"
    },
    {
      "inputs": [],
      "name": "renounceOwnership",
      "outputs": [],
      "stateMutability": "nonpayable",
      "type": "function"
    },
    {
      "inputs": [
        {
          "internalType": "address",
          "name": "newOwner",
          "type": "address"
        }
      ],
      "name": "transferOwnership",
      "outputs": [],
      "stateMutability": "nonpayable",
      "type": "function"
    },
    {
      "inputs": [
        {
          "internalType": "uint256",
          "name": "_tokenId",
          "type": "uint256"
        }
      ],
      "name": "getTokenInfo",
      "outputs": [
        {
          "internalType": "address",
          "name": "",
          "type": "address"
        },
        {
          "internalType": "uint256",
          "name": "",
          "type": "uint256"
        },
        {
          "internalType": "bool",
          "name": "",
          "type": "bool"
        }
      ],
      "stateMutability": "view",
      "type": "function"
    },
    {
      "inputs": [
        {
          "internalType": "uint256",
          "name": "_tokenId",
          "type": "uint256"
        },
        {
          "internalType": "uint256",
          "name": "_price",
          "type": "uint256"
        }
      ],
      "name": "saleNFT",
      "outputs": [],
      "stateMutability": "nonpayable",
      "type": "function"
    },
    {
      "inputs": [
        {
          "internalType": "uint256",
          "name": "_tokenId",
          "type": "uint256"
        }
      ],
      "name": "buyToken",
      "outputs": [],
      "stateMutability": "nonpayable",
      "type": "function"
    }
  ],
  "bytecode": "0x60806040523480156200001157600080fd5b506040516200174338038062001743833981810160405281019062000037919062000190565b6000620000496200017160201b60201c565b9050806000806101000a81548173ffffffffffffffffffffffffffffffffffffffff021916908373ffffffffffffffffffffffffffffffffffffffff1602179055508073ffffffffffffffffffffffffffffffffffffffff16600073ffffffffffffffffffffffffffffffffffffffff167f8be0079c531659141344cd1fd0a4f28419497f9722a3daafe3b4186f6b6457e060405160405180910390a35081600160006101000a81548173ffffffffffffffffffffffffffffffffffffffff021916908373ffffffffffffffffffffffffffffffffffffffff16021790555080600260006101000a81548173ffffffffffffffffffffffffffffffffffffffff021916908373ffffffffffffffffffffffffffffffffffffffff16021790555050506200021f565b600033905090565b6000815190506200018a8162000205565b92915050565b60008060408385031215620001a457600080fd5b6000620001b48582860162000179565b9250506020620001c78582860162000179565b9150509250929050565b6000620001de82620001e5565b9050919050565b600073ffffffffffffffffffffffffffffffffffffffff82169050919050565b6200021081620001d1565b81146200021c57600080fd5b50565b611514806200022f6000396000f3fe608060405234801561001057600080fd5b50600436106100625760003560e01c806326d8fde2146100675780632d296bf114610083578063715018a61461009f5780638c7a63ae146100a95780638da5cb5b146100db578063f2fde38b146100f9575b600080fd5b610081600480360381019061007c9190610f47565b610115565b005b61009d60048036038101906100989190610ee2565b610494565b005b6100a761094b565b005b6100c360048036038101906100be9190610ee2565b610a85565b6040516100d293929190611237565b60405180910390f35b6100e3610bc6565b6040516100f091906111e5565b60405180910390f35b610113600480360381019061010e9190610e67565b610bef565b005b61011d610d98565b73ffffffffffffffffffffffffffffffffffffffff1663081812fc836040518263ffffffff1660e01b815260040161015591906113a5565b60206040518083038186803b15801561016d57600080fd5b505afa158015610181573d6000803e3d6000fd5b505050506040513d601f19601f820116820180604052508101906101a59190610e90565b73ffffffffffffffffffffffffffffffffffffffff163073ffffffffffffffffffffffffffffffffffffffff1614610212576040517f08c379a0000000000000000000000000000000000000000000000000000000008152600401610209906112c5565b60405180910390fd5b61021a610d98565b73ffffffffffffffffffffffffffffffffffffffff16634f558e79836040518263ffffffff1660e01b815260040161025291906113a5565b60206040518083038186803b15801561026a57600080fd5b505afa15801561027e573d6000803e3d6000fd5b505050506040513d601f19601f820116820180604052508101906102a29190610eb9565b6102e1576040517f08c379a00000000000000000000000000000000000000000000000000000000081526004016102d8906112e5565b60405180910390fd5b3373ffffffffffffffffffffffffffffffffffffffff16610300610d98565b73ffffffffffffffffffffffffffffffffffffffff16636352211e846040518263ffffffff1660e01b815260040161033891906113a5565b60206040518083038186803b15801561035057600080fd5b505afa158015610364573d6000803e3d6000fd5b505050506040513d601f19601f820116820180604052508101906103889190610e90565b73ffffffffffffffffffffffffffffffffffffffff16146103de576040517f08c379a00000000000000000000000000000000000000000000000000000000081526004016103d590611385565b60405180910390fd5b6103e6610d98565b73ffffffffffffffffffffffffffffffffffffffff16636096fd63838360016040518463ffffffff1660e01b8152600401610423939291906113f7565b600060405180830381600087803b15801561043d57600080fd5b505af1158015610451573d6000803e3d6000fd5b505050507f2275f6127f341987ce3dcc04ce49dcd4b64b030932695d2457c8bef567792be93383836040516104889392919061126e565b60405180910390a15050565b600061049e610d98565b73ffffffffffffffffffffffffffffffffffffffff16636352211e836040518263ffffffff1660e01b81526004016104d691906113a5565b60206040518083038186803b1580156104ee57600080fd5b505afa158015610502573d6000803e3d6000fd5b505050506040513d601f19601f820116820180604052508101906105269190610e90565b905060008061053484610a85565b9250925050600073ffffffffffffffffffffffffffffffffffffffff163373ffffffffffffffffffffffffffffffffffffffff16141580156105a257503073ffffffffffffffffffffffffffffffffffffffff163373ffffffffffffffffffffffffffffffffffffffff1614155b6105e1576040517f08c379a00000000000000000000000000000000000000000000000000000000081526004016105d890611345565b60405180910390fd5b6105e9610d98565b73ffffffffffffffffffffffffffffffffffffffff16634f558e79856040518263ffffffff1660e01b815260040161062191906113a5565b60206040518083038186803b15801561063957600080fd5b505afa15801561064d573d6000803e3d6000fd5b505050506040513d601f19601f820116820180604052508101906106719190610eb9565b6106b0576040517f08c379a00000000000000000000000000000000000000000000000000000000081526004016106a790611305565b60405180910390fd5b60011515811515146106f7576040517f08c379a00000000000000000000000000000000000000000000000000000000081526004016106ee90611325565b60405180910390fd5b6106ff610dc7565b73ffffffffffffffffffffffffffffffffffffffff166323b872dd3385856040518463ffffffff1660e01b815260040161073b93929190611200565b602060405180830381600087803b15801561075557600080fd5b505af1158015610769573d6000803e3d6000fd5b505050506040513d601f19601f8201168201806040525081019061078d9190610eb9565b50610796610d98565b73ffffffffffffffffffffffffffffffffffffffff166342842e0e6107b9610d98565b73ffffffffffffffffffffffffffffffffffffffff16636352211e876040518263ffffffff1660e01b81526004016107f191906113a5565b60206040518083038186803b15801561080957600080fd5b505afa15801561081d573d6000803e3d6000fd5b505050506040513d601f19601f820116820180604052508101906108419190610e90565b33876040518463ffffffff1660e01b815260040161086193929190611200565b600060405180830381600087803b15801561087b57600080fd5b505af115801561088f573d6000803e3d6000fd5b5050505061089b610d98565b73ffffffffffffffffffffffffffffffffffffffff16636096fd63856000806040518463ffffffff1660e01b81526004016108d8939291906113c0565b600060405180830381600087803b1580156108f257600080fd5b505af1158015610906573d6000803e3d6000fd5b505050507fd9e780567a58b8d3eb1b06731509d9f11c1bf0705247465a1160c070887d3d6233858460405161093d9392919061126e565b60405180910390a150505050565b610953610df6565b73ffffffffffffffffffffffffffffffffffffffff16610971610bc6565b73ffffffffffffffffffffffffffffffffffffffff16146109c7576040517f08c379a00000000000000000000000000000000000000000000000000000000081526004016109be90611365565b60405180910390fd5b600073ffffffffffffffffffffffffffffffffffffffff1660008054906101000a900473ffffffffffffffffffffffffffffffffffffffff1673ffffffffffffffffffffffffffffffffffffffff167f8be0079c531659141344cd1fd0a4f28419497f9722a3daafe3b4186f6b6457e060405160405180910390a360008060006101000a81548173ffffffffffffffffffffffffffffffffffffffff021916908373ffffffffffffffffffffffffffffffffffffffff160217905550565b600080600080610a93610d98565b73ffffffffffffffffffffffffffffffffffffffff16636352211e866040518263ffffffff1660e01b8152600401610acb91906113a5565b60206040518083038186803b158015610ae357600080fd5b505afa158015610af7573d6000803e3d6000fd5b505050506040513d601f19601f82011682018060405250810190610b1b9190610e90565b9050600080610b28610d98565b73ffffffffffffffffffffffffffffffffffffffff16632831f2f4886040518263ffffffff1660e01b8152600401610b6091906113a5565b604080518083038186803b158015610b7757600080fd5b505afa158015610b8b573d6000803e3d6000fd5b505050506040513d601f19601f82011682018060405250810190610baf9190610f0b565b915091508282829550955095505050509193909250565b60008060009054906101000a900473ffffffffffffffffffffffffffffffffffffffff16905090565b610bf7610df6565b73ffffffffffffffffffffffffffffffffffffffff16610c15610bc6565b73ffffffffffffffffffffffffffffffffffffffff1614610c6b576040517f08c379a0000000000000000000000000000000000000000000000000000000008152600401610c6290611365565b60405180910390fd5b600073ffffffffffffffffffffffffffffffffffffffff168173ffffffffffffffffffffffffffffffffffffffff161415610cdb576040517f08c379a0000000000000000000000000000000000000000000000000000000008152600401610cd2906112a5565b60405180910390fd5b8073ffffffffffffffffffffffffffffffffffffffff1660008054906101000a900473ffffffffffffffffffffffffffffffffffffffff1673ffffffffffffffffffffffffffffffffffffffff167f8be0079c531659141344cd1fd0a4f28419497f9722a3daafe3b4186f6b6457e060405160405180910390a3806000806101000a81548173ffffffffffffffffffffffffffffffffffffffff021916908373ffffffffffffffffffffffffffffffffffffffff16021790555050565b600080600160009054906101000a900473ffffffffffffffffffffffffffffffffffffffff1690508091505090565b600080600260009054906101000a900473ffffffffffffffffffffffffffffffffffffffff1690508091505090565b600033905090565b600081359050610e0d81611499565b92915050565b600081519050610e2281611499565b92915050565b600081519050610e37816114b0565b92915050565b600081359050610e4c816114c7565b92915050565b600081519050610e61816114c7565b92915050565b600060208284031215610e7957600080fd5b6000610e8784828501610dfe565b91505092915050565b600060208284031215610ea257600080fd5b6000610eb084828501610e13565b91505092915050565b600060208284031215610ecb57600080fd5b6000610ed984828501610e28565b91505092915050565b600060208284031215610ef457600080fd5b6000610f0284828501610e3d565b91505092915050565b60008060408385031215610f1e57600080fd5b6000610f2c85828601610e52565b9250506020610f3d85828601610e28565b9150509250929050565b60008060408385031215610f5a57600080fd5b6000610f6885828601610e3d565b9250506020610f7985828601610e3d565b9150509250929050565b610f8c8161143f565b82525050565b610f9b81611451565b82525050565b610faa81611487565b82525050565b6000610fbd60268361142e565b91507f4f776e61626c653a206e6577206f776e657220697320746865207a65726f206160008301527f64647265737300000000000000000000000000000000000000000000000000006020830152604082019050919050565b600061102360178361142e565b91507f546f6b656e206973206e6f7420617070726f76656420210000000000000000006000830152602082019050919050565b600061106360168361142e565b91507f20546f6b656e206973206e6f74206578697374732021000000000000000000006000830152602082019050919050565b60006110a360158361142e565b91507f546f6b656e206973206e6f7420657869737473202100000000000000000000006000830152602082019050919050565b60006110e360158361142e565b91507f546f6b656e206973206e6f742073616c65206e6f7700000000000000000000006000830152602082019050919050565b600061112360178361142e565b91507f496e76616c696420746f6b656e206164647265737320210000000000000000006000830152602082019050919050565b600061116360208361142e565b91507f4f776e61626c653a2063616c6c6572206973206e6f7420746865206f776e65726000830152602082019050919050565b60006111a360168361142e565b91507f20546f6b656e206973206e6f74206f776e6564202120000000000000000000006000830152602082019050919050565b6111df8161147d565b82525050565b60006020820190506111fa6000830184610f83565b92915050565b60006060820190506112156000830186610f83565b6112226020830185610f83565b61122f60408301846111d6565b949350505050565b600060608201905061124c6000830186610f83565b61125960208301856111d6565b6112666040830184610f92565b949350505050565b60006060820190506112836000830186610f83565b61129060208301856111d6565b61129d60408301846111d6565b949350505050565b600060208201905081810360008301526112be81610fb0565b9050919050565b600060208201905081810360008301526112de81611016565b9050919050565b600060208201905081810360008301526112fe81611056565b9050919050565b6000602082019050818103600083015261131e81611096565b9050919050565b6000602082019050818103600083015261133e816110d6565b9050919050565b6000602082019050818103600083015261135e81611116565b9050919050565b6000602082019050818103600083015261137e81611156565b9050919050565b6000602082019050818103600083015261139e81611196565b9050919050565b60006020820190506113ba60008301846111d6565b92915050565b60006060820190506113d560008301866111d6565b6113e26020830185610fa1565b6113ef6040830184610f92565b949350505050565b600060608201905061140c60008301866111d6565b61141960208301856111d6565b6114266040830184610f92565b949350505050565b600082825260208201905092915050565b600061144a8261145d565b9050919050565b60008115159050919050565b600073ffffffffffffffffffffffffffffffffffffffff82169050919050565b6000819050919050565b60006114928261147d565b9050919050565b6114a28161143f565b81146114ad57600080fd5b50565b6114b981611451565b81146114c457600080fd5b50565b6114d08161147d565b81146114db57600080fd5b5056fea26469706673582212206dffd46488a6a29680f0dd465cf4edce613ef2d9a7ebc879af0bc157c52d5e5964736f6c63430008000033",
  "immutableReferences": {},
  "source": "// SPDX-License-Identifier: MIT\npragma solidity ^0.8.0;\n\nimport \"@openzeppelin/contracts/access/Ownable.sol\";\nimport \"./ERC20Token.sol\";\nimport \"./MyNFT.sol\";\n\ncontract  Marketplace is Ownable{\n    event Saler(address Saler, uint idToken, uint priceToken);\n    event Buyer(address Buyer, uint idToken, uint priceToken);\n    \n    address addressContractMyNFT;\n    address addressContractERC20;\n    \n\n    constructor(address _addressContractMyNFT, address _addressContractERC20) {\n        addressContractMyNFT = _addressContractMyNFT;\n        addressContractERC20 = _addressContractERC20;\n    }\n    \n    //call MyNFT\n    function callContractMyNFT() private view returns (MyNFT){\n        MyNFT nft = MyNFT(addressContractMyNFT);\n        return nft;\n    }\n    \n    // call contract tokenERC20\n    function callContractERC20() private view returns (TokenFactory){\n        TokenFactory erc20 = TokenFactory(addressContractERC20);\n        return erc20;\n    }\n    \n    function getTokenInfo(uint _tokenId) public view returns(address, uint, bool){\n        address owner = callContractMyNFT().ownerOf(_tokenId); \n        (uint price, bool sale) = callContractMyNFT().forSale(_tokenId);\n        return (owner, price, sale);\n    }\n    \n    // setPrice and SaleNFT\n    function saleNFT(uint _tokenId, uint _price) public\n    {\n        require(address(this) == callContractMyNFT().getApproved(_tokenId), \"Token is not approved !\" );\n        require(callContractMyNFT().exists(_tokenId), \" Token is not exists !\");\n        require(callContractMyNFT().ownerOf(_tokenId) == msg.sender, \" Token is not owned ! \");\n        callContractMyNFT().setStatus(_tokenId, _price ,true);\n        emit Saler(msg.sender,_tokenId, _price);\n    }\n    \n    //  Buy NFT\n    function buyToken(uint _tokenId) public\n    {\n        address owner = callContractMyNFT().ownerOf(_tokenId);\n        (,uint price, bool sale) = getTokenInfo(_tokenId);\n        require(msg.sender != address(0) && msg.sender != address(this) , \"Invalid token address !\");\n        require(callContractMyNFT().exists(_tokenId),\"Token is not exists !\");\n        require(sale == true, \"Token is not sale now\");\n        callContractERC20().transferFrom(msg.sender, owner, price);\n        callContractMyNFT().safeTransferFrom(callContractMyNFT().ownerOf(_tokenId), msg.sender, _tokenId);\n        callContractMyNFT().setStatus(_tokenId, 0, false);\n        emit Buyer(msg.sender ,_tokenId, price);\n    }\n}   ",
  "sourcePath": "/home/tung/Desktop/demo/DemoMarketNFT/contracts/Market.sol",
  "compiler": {
    "name": "solc",
    "version": "0.8.0+commit.c7dfd78e.Emscripten.clang"
  },
  "schemaVersion": "3.4.1",
  "updatedAt": "2021-06-02T07:35:44.373Z",
  "devdoc": {
    "kind": "dev",
    "methods": {
      "owner()": {
        "details": "Returns the address of the current owner."
      },
      "renounceOwnership()": {
        "details": "Leaves the contract without owner. It will not be possible to call `onlyOwner` functions anymore. Can only be called by the current owner. NOTE: Renouncing ownership will leave the contract without an owner, thereby removing any functionality that is only available to the owner."
      },
      "transferOwnership(address)": {
        "details": "Transfers ownership of the contract to a new account (`newOwner`). Can only be called by the current owner."
      }
    },
    "version": 1
  },
  "userdoc": {
    "kind": "user",
    "methods": {},
    "version": 1
  }
}