{
  "contractName": "MyNFT",
  "abi": [
    {
      "inputs": [],
      "stateMutability": "nonpayable",
      "type": "constructor"
    },
    {
      "anonymous": false,
      "inputs": [
        {
          "indexed": true,
          "internalType": "address",
          "name": "owner",
          "type": "address"
        },
        {
          "indexed": true,
          "internalType": "address",
          "name": "approved",
          "type": "address"
        },
        {
          "indexed": true,
          "internalType": "uint256",
          "name": "tokenId",
          "type": "uint256"
        }
      ],
      "name": "Approval",
      "type": "event"
    },
    {
      "anonymous": false,
      "inputs": [
        {
          "indexed": true,
          "internalType": "address",
          "name": "owner",
          "type": "address"
        },
        {
          "indexed": true,
          "internalType": "address",
          "name": "operator",
          "type": "address"
        },
        {
          "indexed": false,
          "internalType": "bool",
          "name": "approved",
          "type": "bool"
        }
      ],
      "name": "ApprovalForAll",
      "type": "event"
    },
    {
      "anonymous": false,
      "inputs": [
        {
          "indexed": false,
          "internalType": "address",
          "name": "recipient",
          "type": "address"
        },
        {
          "indexed": false,
          "internalType": "uint256",
          "name": "tokenId",
          "type": "uint256"
        }
      ],
      "name": "Mint",
      "type": "event"
    },
    {
      "anonymous": false,
      "inputs": [
        {
          "indexed": true,
          "internalType": "address",
          "name": "from",
          "type": "address"
        },
        {
          "indexed": true,
          "internalType": "address",
          "name": "to",
          "type": "address"
        },
        {
          "indexed": true,
          "internalType": "uint256",
          "name": "tokenId",
          "type": "uint256"
        }
      ],
      "name": "Transfer",
      "type": "event"
    },
    {
      "inputs": [
        {
          "internalType": "address",
          "name": "to",
          "type": "address"
        },
        {
          "internalType": "uint256",
          "name": "tokenId",
          "type": "uint256"
        }
      ],
      "name": "approve",
      "outputs": [],
      "stateMutability": "nonpayable",
      "type": "function"
    },
    {
      "inputs": [
        {
          "internalType": "address",
          "name": "owner",
          "type": "address"
        }
      ],
      "name": "balanceOf",
      "outputs": [
        {
          "internalType": "uint256",
          "name": "",
          "type": "uint256"
        }
      ],
      "stateMutability": "view",
      "type": "function"
    },
    {
      "inputs": [
        {
          "internalType": "uint256",
          "name": "",
          "type": "uint256"
        }
      ],
      "name": "forSale",
      "outputs": [
        {
          "internalType": "uint256",
          "name": "price",
          "type": "uint256"
        },
        {
          "internalType": "bool",
          "name": "sale",
          "type": "bool"
        }
      ],
      "stateMutability": "view",
      "type": "function"
    },
    {
      "inputs": [
        {
          "internalType": "uint256",
          "name": "tokenId",
          "type": "uint256"
        }
      ],
      "name": "getApproved",
      "outputs": [
        {
          "internalType": "address",
          "name": "",
          "type": "address"
        }
      ],
      "stateMutability": "view",
      "type": "function"
    },
    {
      "inputs": [
        {
          "internalType": "address",
          "name": "owner",
          "type": "address"
        },
        {
          "internalType": "address",
          "name": "operator",
          "type": "address"
        }
      ],
      "name": "isApprovedForAll",
      "outputs": [
        {
          "internalType": "bool",
          "name": "",
          "type": "bool"
        }
      ],
      "stateMutability": "view",
      "type": "function"
    },
    {
      "inputs": [
        {
          "internalType": "uint256",
          "name": "",
          "type": "uint256"
        }
      ],
      "name": "listIdSale",
      "outputs": [
        {
          "internalType": "uint256",
          "name": "",
          "type": "uint256"
        }
      ],
      "stateMutability": "view",
      "type": "function"
    },
    {
      "inputs": [],
      "name": "name",
      "outputs": [
        {
          "internalType": "string",
          "name": "",
          "type": "string"
        }
      ],
      "stateMutability": "view",
      "type": "function"
    },
    {
      "inputs": [
        {
          "internalType": "uint256",
          "name": "tokenId",
          "type": "uint256"
        }
      ],
      "name": "ownerOf",
      "outputs": [
        {
          "internalType": "address",
          "name": "",
          "type": "address"
        }
      ],
      "stateMutability": "view",
      "type": "function"
    },
    {
      "inputs": [
        {
          "internalType": "address",
          "name": "from",
          "type": "address"
        },
        {
          "internalType": "address",
          "name": "to",
          "type": "address"
        },
        {
          "internalType": "uint256",
          "name": "tokenId",
          "type": "uint256"
        }
      ],
      "name": "safeTransferFrom",
      "outputs": [],
      "stateMutability": "nonpayable",
      "type": "function"
    },
    {
      "inputs": [
        {
          "internalType": "address",
          "name": "from",
          "type": "address"
        },
        {
          "internalType": "address",
          "name": "to",
          "type": "address"
        },
        {
          "internalType": "uint256",
          "name": "tokenId",
          "type": "uint256"
        },
        {
          "internalType": "bytes",
          "name": "_data",
          "type": "bytes"
        }
      ],
      "name": "safeTransferFrom",
      "outputs": [],
      "stateMutability": "nonpayable",
      "type": "function"
    },
    {
      "inputs": [
        {
          "internalType": "address",
          "name": "operator",
          "type": "address"
        },
        {
          "internalType": "bool",
          "name": "approved",
          "type": "bool"
        }
      ],
      "name": "setApprovalForAll",
      "outputs": [],
      "stateMutability": "nonpayable",
      "type": "function"
    },
    {
      "inputs": [
        {
          "internalType": "bytes4",
          "name": "interfaceId",
          "type": "bytes4"
        }
      ],
      "name": "supportsInterface",
      "outputs": [
        {
          "internalType": "bool",
          "name": "",
          "type": "bool"
        }
      ],
      "stateMutability": "view",
      "type": "function"
    },
    {
      "inputs": [],
      "name": "symbol",
      "outputs": [
        {
          "internalType": "string",
          "name": "",
          "type": "string"
        }
      ],
      "stateMutability": "view",
      "type": "function"
    },
    {
      "inputs": [
        {
          "internalType": "uint256",
          "name": "tokenId",
          "type": "uint256"
        }
      ],
      "name": "tokenURI",
      "outputs": [
        {
          "internalType": "string",
          "name": "",
          "type": "string"
        }
      ],
      "stateMutability": "view",
      "type": "function"
    },
    {
      "inputs": [
        {
          "internalType": "address",
          "name": "from",
          "type": "address"
        },
        {
          "internalType": "address",
          "name": "to",
          "type": "address"
        },
        {
          "internalType": "uint256",
          "name": "tokenId",
          "type": "uint256"
        }
      ],
      "name": "transferFrom",
      "outputs": [],
      "stateMutability": "nonpayable",
      "type": "function"
    },
    {
      "inputs": [
        {
          "internalType": "uint256",
          "name": "_idToken",
          "type": "uint256"
        },
        {
          "internalType": "string",
          "name": "tokenURI",
          "type": "string"
        }
      ],
      "name": "mintToken",
      "outputs": [
        {
          "internalType": "uint256",
          "name": "",
          "type": "uint256"
        }
      ],
      "stateMutability": "nonpayable",
      "type": "function"
    },
    {
      "inputs": [
        {
          "internalType": "address",
          "name": "owner",
          "type": "address"
        }
      ],
      "name": "getListIdOfOwner",
      "outputs": [
        {
          "internalType": "uint256[]",
          "name": "",
          "type": "uint256[]"
        }
      ],
      "stateMutability": "view",
      "type": "function"
    },
    {
      "inputs": [
        {
          "internalType": "uint256",
          "name": "_idToken",
          "type": "uint256"
        },
        {
          "internalType": "address",
          "name": "owner",
          "type": "address"
        }
      ],
      "name": "addListIdOfOwner",
      "outputs": [],
      "stateMutability": "nonpayable",
      "type": "function"
    },
    {
      "inputs": [
        {
          "internalType": "uint256",
          "name": "_idToken",
          "type": "uint256"
        },
        {
          "internalType": "address",
          "name": "owner",
          "type": "address"
        }
      ],
      "name": "removeListIdOfOwner",
      "outputs": [],
      "stateMutability": "nonpayable",
      "type": "function"
    },
    {
      "inputs": [],
      "name": "getListIdSale",
      "outputs": [
        {
          "internalType": "uint256[]",
          "name": "",
          "type": "uint256[]"
        }
      ],
      "stateMutability": "view",
      "type": "function"
    },
    {
      "inputs": [
        {
          "internalType": "uint256",
          "name": "_tokenId",
          "type": "uint256"
        }
      ],
      "name": "addListIdSale",
      "outputs": [],
      "stateMutability": "nonpayable",
      "type": "function"
    },
    {
      "inputs": [
        {
          "internalType": "uint256",
          "name": "_tokenId",
          "type": "uint256"
        }
      ],
      "name": "removeListIdSale",
      "outputs": [],
      "stateMutability": "nonpayable",
      "type": "function"
    },
    {
      "inputs": [
        {
          "internalType": "uint256",
          "name": "_tokenID",
          "type": "uint256"
        },
        {
          "internalType": "uint256",
          "name": "_price",
          "type": "uint256"
        },
        {
          "internalType": "bool",
          "name": "_sale",
          "type": "bool"
        }
      ],
      "name": "setStatus",
      "outputs": [],
      "stateMutability": "nonpayable",
      "type": "function"
    },
    {
      "inputs": [
        {
          "internalType": "uint256",
          "name": "_idToken",
          "type": "uint256"
        }
      ],
      "name": "unSale",
      "outputs": [],
      "stateMutability": "nonpayable",
      "type": "function"
    },
    {
      "inputs": [
        {
          "internalType": "uint256",
          "name": "_tokenId",
          "type": "uint256"
        }
      ],
      "name": "deleteToken",
      "outputs": [],
      "stateMutability": "nonpayable",
      "type": "function"
    },
    {
      "inputs": [
        {
          "internalType": "uint256",
          "name": "_tokenId",
          "type": "uint256"
        }
      ],
      "name": "exists",
      "outputs": [
        {
          "internalType": "bool",
          "name": "",
          "type": "bool"
        }
      ],
      "stateMutability": "view",
      "type": "function"
    }
  ],
  "bytecode": "0x60806040523480156200001157600080fd5b506040518060400160405280600581526020017f4d794e46540000000000000000000000000000000000000000000000000000008152506040518060400160405280600381526020017f4e46540000000000000000000000000000000000000000000000000000000000815250816000908051906020019062000096929190620000b8565b508060019080519060200190620000af929190620000b8565b505050620001cd565b828054620000c69062000168565b90600052602060002090601f016020900481019282620000ea576000855562000136565b82601f106200010557805160ff191683800117855562000136565b8280016001018555821562000136579182015b828111156200013557825182559160200191906001019062000118565b5b50905062000145919062000149565b5090565b5b80821115620001645760008160009055506001016200014a565b5090565b600060028204905060018216806200018157607f821691505b602082108114156200019857620001976200019e565b5b50919050565b7f4e487b7100000000000000000000000000000000000000000000000000000000600052602260045260246000fd5b61391e80620001dd6000396000f3fe608060405234801561001057600080fd5b506004361061018e5760003560e01c806370a08231116100de578063b88d4fde11610097578063cbac157911610071578063cbac1579146104ca578063df4951c0146104e6578063e985e9c514610502578063ee7d4917146105325761018e565b8063b88d4fde14610462578063ba109bfc1461047e578063c87b56dd1461049a5761018e565b806370a082311461037c578063752312a9146103ac57806395d89b41146103dc5780639773b6f4146103fa5780639c6334f314610416578063a22cb465146104465761018e565b80632831f2f41161014b5780636096fd63116101255780636096fd63146102e45780636297c16c146103005780636352211e1461031c5780636c8cdda41461034c5761018e565b80632831f2f41461026757806342842e0e146102985780634f558e79146102b45761018e565b806301ffc9a71461019357806306fdde03146101c3578063081812fc146101e1578063095ea7b3146102115780631f83207d1461022d57806323b872dd1461024b575b600080fd5b6101ad60048036038101906101a891906127e1565b61054e565b6040516101ba91906131d4565b60405180910390f35b6101cb610630565b6040516101d891906131ef565b60405180910390f35b6101fb60048036038101906101f69190612833565b6106c2565b6040516102089190613122565b60405180910390f35b61022b600480360381019061022691906127a5565b610747565b005b61023561085f565b60405161024291906131b2565b60405180910390f35b6102656004803603810190610260919061269f565b6108b7565b005b610281600480360381019061027c9190612833565b610917565b60405161028f92919061346c565b60405180910390f35b6102b260048036038101906102ad919061269f565b610948565b005b6102ce60048036038101906102c99190612833565b610968565b6040516102db91906131d4565b60405180910390f35b6102fe60048036038101906102f991906128ec565b61097a565b005b61031a60048036038101906103159190612833565b6109c8565b005b61033660048036038101906103319190612833565b610a92565b6040516103439190613122565b60405180910390f35b61036660048036038101906103619190612833565b610b44565b6040516103739190613451565b60405180910390f35b6103966004803603810190610391919061263a565b610b68565b6040516103a39190613451565b60405180910390f35b6103c660048036038101906103c19190612898565b610c20565b6040516103d39190613451565b60405180910390f35b6103e4610cde565b6040516103f191906131ef565b60405180910390f35b610414600480360381019061040f9190612833565b610d70565b005b610430600480360381019061042b919061263a565b610d93565b60405161043d91906131b2565b60405180910390f35b610460600480360381019061045b9190612769565b610e2a565b005b61047c600480360381019061047791906126ee565b610fab565b005b6104986004803603810190610493919061285c565b61100d565b005b6104b460048036038101906104af9190612833565b611077565b6040516104c191906131ef565b60405180910390f35b6104e460048036038101906104df919061285c565b6111c9565b005b61050060048036038101906104fb9190612833565b611498565b005b61051c60048036038101906105179190612663565b6115f8565b60405161052991906131d4565b60405180910390f35b61054c60048036038101906105479190612833565b61168c565b005b60007f80ac58cd000000000000000000000000000000000000000000000000000000007bffffffffffffffffffffffffffffffffffffffffffffffffffffffff1916827bffffffffffffffffffffffffffffffffffffffffffffffffffffffff1916148061061957507f5b5e139f000000000000000000000000000000000000000000000000000000007bffffffffffffffffffffffffffffffffffffffffffffffffffffffff1916827bffffffffffffffffffffffffffffffffffffffffffffffffffffffff1916145b806106295750610628826116b8565b5b9050919050565b60606000805461063f90613713565b80601f016020809104026020016040519081016040528092919081815260200182805461066b90613713565b80156106b85780601f1061068d576101008083540402835291602001916106b8565b820191906000526020600020905b81548152906001019060200180831161069b57829003601f168201915b5050505050905090565b60006106cd82611722565b61070c576040517f08c379a0000000000000000000000000000000000000000000000000000000008152600401610703906133b1565b60405180910390fd5b6004600083815260200190815260200160002060009054906101000a900473ffffffffffffffffffffffffffffffffffffffff169050919050565b600061075282610a92565b90508073ffffffffffffffffffffffffffffffffffffffff168373ffffffffffffffffffffffffffffffffffffffff1614156107c3576040517f08c379a00000000000000000000000000000000000000000000000000000000081526004016107ba90613411565b60405180910390fd5b8073ffffffffffffffffffffffffffffffffffffffff166107e261178e565b73ffffffffffffffffffffffffffffffffffffffff16148061081157506108108161080b61178e565b6115f8565b5b610850576040517f08c379a0000000000000000000000000000000000000000000000000000000008152600401610847906132d1565b60405180910390fd5b61085a8383611796565b505050565b606060098054806020026020016040519081016040528092919081815260200182805480156108ad57602002820191906000526020600020905b815481526020019060010190808311610899575b5050505050905090565b6108c86108c261178e565b8261184f565b610907576040517f08c379a00000000000000000000000000000000000000000000000000000000081526004016108fe90613431565b60405180910390fd5b61091283838361192d565b505050565b60076020528060005260406000206000915090508060000154908060010160009054906101000a900460ff16905082565b61096383838360405180602001604052806000815250610fab565b505050565b600061097382611722565b9050919050565b816007600085815260200190815260200160002060000181905550806007600085815260200190815260200160002060010160006101000a81548160ff021916908315150217905550505050565b6109d181611722565b610a10576040517f08c379a0000000000000000000000000000000000000000000000000000000008152600401610a0790613351565b60405180910390fd5b3373ffffffffffffffffffffffffffffffffffffffff16610a3082610a92565b73ffffffffffffffffffffffffffffffffffffffff1614610a86576040517f08c379a0000000000000000000000000000000000000000000000000000000008152600401610a7d90613251565b60405180910390fd5b610a8f81611b89565b50565b6000806002600084815260200190815260200160002060009054906101000a900473ffffffffffffffffffffffffffffffffffffffff169050600073ffffffffffffffffffffffffffffffffffffffff168173ffffffffffffffffffffffffffffffffffffffff161415610b3b576040517f08c379a0000000000000000000000000000000000000000000000000000000008152600401610b3290613311565b60405180910390fd5b80915050919050565b60098181548110610b5457600080fd5b906000526020600020016000915090505481565b60008073ffffffffffffffffffffffffffffffffffffffff168273ffffffffffffffffffffffffffffffffffffffff161415610bd9576040517f08c379a0000000000000000000000000000000000000000000000000000000008152600401610bd0906132f1565b60405180910390fd5b600360008373ffffffffffffffffffffffffffffffffffffffff1673ffffffffffffffffffffffffffffffffffffffff168152602001908152602001600020549050919050565b6000610c2c3384611bdc565b610c368383611bfa565b600860003373ffffffffffffffffffffffffffffffffffffffff1673ffffffffffffffffffffffffffffffffffffffff1681526020019081526020016000208390806001815401808255809150506001900390600052602060002001600090919091909150557f0f6798a560793a54c3bcfe86a93cde1e73087d944c0ea20544137d41213968853384604051610ccd929190613189565b60405180910390a182905092915050565b606060018054610ced90613713565b80601f0160208091040260200160405190810160405280929190818152602001828054610d1990613713565b8015610d665780601f10610d3b57610100808354040283529160200191610d66565b820191906000526020600020905b815481529060010190602001808311610d4957829003601f168201915b5050505050905090565b610d7c8160008061097a565b610d87600082610747565b610d9081611498565b50565b6060600860008373ffffffffffffffffffffffffffffffffffffffff1673ffffffffffffffffffffffffffffffffffffffff168152602001908152602001600020805480602002602001604051908101604052809291908181526020018280548015610e1e57602002820191906000526020600020905b815481526020019060010190808311610e0a575b50505050509050919050565b610e3261178e565b73ffffffffffffffffffffffffffffffffffffffff168273ffffffffffffffffffffffffffffffffffffffff161415610ea0576040517f08c379a0000000000000000000000000000000000000000000000000000000008152600401610e9790613291565b60405180910390fd5b8060056000610ead61178e565b73ffffffffffffffffffffffffffffffffffffffff1673ffffffffffffffffffffffffffffffffffffffff16815260200190815260200160002060008473ffffffffffffffffffffffffffffffffffffffff1673ffffffffffffffffffffffffffffffffffffffff16815260200190815260200160002060006101000a81548160ff0219169083151502179055508173ffffffffffffffffffffffffffffffffffffffff16610f5a61178e565b73ffffffffffffffffffffffffffffffffffffffff167f17307eab39ab6107e8899845ad3d59bd9653f200f220920489ca2b5937696c3183604051610f9f91906131d4565b60405180910390a35050565b610fbc610fb661178e565b8361184f565b610ffb576040517f08c379a0000000000000000000000000000000000000000000000000000000008152600401610ff290613431565b60405180910390fd5b61100784848484611c6e565b50505050565b600860008273ffffffffffffffffffffffffffffffffffffffff1673ffffffffffffffffffffffffffffffffffffffff1681526020019081526020016000208290806001815401808255809150506001900390600052602060002001600090919091909150555050565b606061108282611722565b6110c1576040517f08c379a00000000000000000000000000000000000000000000000000000000081526004016110b890613391565b60405180910390fd5b60006006600084815260200190815260200160002080546110e190613713565b80601f016020809104026020016040519081016040528092919081815260200182805461110d90613713565b801561115a5780601f1061112f5761010080835404028352916020019161115a565b820191906000526020600020905b81548152906001019060200180831161113d57829003601f168201915b50505050509050600061116b611cca565b90506000815114156111815781925050506111c4565b6000825111156111b657808260405160200161119e9291906130fe565b604051602081830303815290604052925050506111c4565b6111bf84611ce1565b925050505b919050565b60005b600860008373ffffffffffffffffffffffffffffffffffffffff1673ffffffffffffffffffffffffffffffffffffffff168152602001908152602001600020805490508110156114935782600860008473ffffffffffffffffffffffffffffffffffffffff1673ffffffffffffffffffffffffffffffffffffffff168152602001908152602001600020828154811061128e577f4e487b7100000000000000000000000000000000000000000000000000000000600052603260045260246000fd5b9060005260206000200154141561148057600860008373ffffffffffffffffffffffffffffffffffffffff1673ffffffffffffffffffffffffffffffffffffffff1681526020019081526020016000206001600860008573ffffffffffffffffffffffffffffffffffffffff1673ffffffffffffffffffffffffffffffffffffffff1681526020019081526020016000208054905061132d9190613629565b81548110611364577f4e487b7100000000000000000000000000000000000000000000000000000000600052603260045260246000fd5b9060005260206000200154600860008473ffffffffffffffffffffffffffffffffffffffff1673ffffffffffffffffffffffffffffffffffffffff16815260200190815260200160002082815481106113e6577f4e487b7100000000000000000000000000000000000000000000000000000000600052603260045260246000fd5b9060005260206000200181905550600860008373ffffffffffffffffffffffffffffffffffffffff1673ffffffffffffffffffffffffffffffffffffffff168152602001908152602001600020805480611469577f4e487b7100000000000000000000000000000000000000000000000000000000600052603160045260246000fd5b600190038181906000526020600020016000905590555b808061148b90613745565b9150506111cc565b505050565b60005b6009805490508110156115f45781600982815481106114e3577f4e487b7100000000000000000000000000000000000000000000000000000000600052603260045260246000fd5b906000526020600020015414156115e157600960016009805490506115089190613629565b8154811061153f577f4e487b7100000000000000000000000000000000000000000000000000000000600052603260045260246000fd5b906000526020600020015460098281548110611584577f4e487b7100000000000000000000000000000000000000000000000000000000600052603260045260246000fd5b906000526020600020018190555060098054806115ca577f4e487b7100000000000000000000000000000000000000000000000000000000600052603160045260246000fd5b600190038181906000526020600020016000905590555b80806115ec90613745565b91505061149b565b5050565b6000600560008473ffffffffffffffffffffffffffffffffffffffff1673ffffffffffffffffffffffffffffffffffffffff16815260200190815260200160002060008373ffffffffffffffffffffffffffffffffffffffff1673ffffffffffffffffffffffffffffffffffffffff16815260200190815260200160002060009054906101000a900460ff16905092915050565b600981908060018154018082558091505060019003906000526020600020016000909190919091505550565b60007f01ffc9a7000000000000000000000000000000000000000000000000000000007bffffffffffffffffffffffffffffffffffffffffffffffffffffffff1916827bffffffffffffffffffffffffffffffffffffffffffffffffffffffff1916149050919050565b60008073ffffffffffffffffffffffffffffffffffffffff166002600084815260200190815260200160002060009054906101000a900473ffffffffffffffffffffffffffffffffffffffff1673ffffffffffffffffffffffffffffffffffffffff1614159050919050565b600033905090565b816004600083815260200190815260200160002060006101000a81548173ffffffffffffffffffffffffffffffffffffffff021916908373ffffffffffffffffffffffffffffffffffffffff160217905550808273ffffffffffffffffffffffffffffffffffffffff1661180983610a92565b73ffffffffffffffffffffffffffffffffffffffff167f8c5be1e5ebec7d5bd14f71427d1e84f3dd0314c0f7b2291e5b200ac8c7c3b92560405160405180910390a45050565b600061185a82611722565b611899576040517f08c379a0000000000000000000000000000000000000000000000000000000008152600401611890906132b1565b60405180910390fd5b60006118a483610a92565b90508073ffffffffffffffffffffffffffffffffffffffff168473ffffffffffffffffffffffffffffffffffffffff16148061191357508373ffffffffffffffffffffffffffffffffffffffff166118fb846106c2565b73ffffffffffffffffffffffffffffffffffffffff16145b80611924575061192381856115f8565b5b91505092915050565b8273ffffffffffffffffffffffffffffffffffffffff1661194d82610a92565b73ffffffffffffffffffffffffffffffffffffffff16146119a3576040517f08c379a000000000000000000000000000000000000000000000000000000000815260040161199a906133d1565b60405180910390fd5b600073ffffffffffffffffffffffffffffffffffffffff168273ffffffffffffffffffffffffffffffffffffffff161415611a13576040517f08c379a0000000000000000000000000000000000000000000000000000000008152600401611a0a90613271565b60405180910390fd5b611a1e838383611d88565b611a29600082611796565b6001600360008573ffffffffffffffffffffffffffffffffffffffff1673ffffffffffffffffffffffffffffffffffffffff1681526020019081526020016000206000828254611a799190613629565b925050819055506001600360008473ffffffffffffffffffffffffffffffffffffffff1673ffffffffffffffffffffffffffffffffffffffff1681526020019081526020016000206000828254611ad091906135a2565b92505081905550816002600083815260200190815260200160002060006101000a81548173ffffffffffffffffffffffffffffffffffffffff021916908373ffffffffffffffffffffffffffffffffffffffff160217905550808273ffffffffffffffffffffffffffffffffffffffff168473ffffffffffffffffffffffffffffffffffffffff167fddf252ad1be2c89b69c2b068fc378daa952ba7f163c4a11628f55a4df523b3ef60405160405180910390a4505050565b611b9281611d8d565b6000600660008381526020019081526020016000208054611bb290613713565b905014611bd957600660008281526020019081526020016000206000611bd8919061241e565b5b50565b611bf6828260405180602001604052806000815250611e9e565b5050565b611c0382611722565b611c42576040517f08c379a0000000000000000000000000000000000000000000000000000000008152600401611c3990613331565b60405180910390fd5b80600660008481526020019081526020016000209080519060200190611c6992919061245e565b505050565b611c7984848461192d565b611c8584848484611ef9565b611cc4576040517f08c379a0000000000000000000000000000000000000000000000000000000008152600401611cbb90613211565b60405180910390fd5b50505050565b606060405180602001604052806000815250905090565b6060611cec82611722565b611d2b576040517f08c379a0000000000000000000000000000000000000000000000000000000008152600401611d22906133f1565b60405180910390fd5b6000611d35611cca565b90506000815111611d555760405180602001604052806000815250611d80565b80611d5f84612090565b604051602001611d709291906130fe565b6040516020818303038152906040525b915050919050565b505050565b6000611d9882610a92565b9050611da681600084611d88565b611db1600083611796565b6001600360008373ffffffffffffffffffffffffffffffffffffffff1673ffffffffffffffffffffffffffffffffffffffff1681526020019081526020016000206000828254611e019190613629565b925050819055506002600083815260200190815260200160002060006101000a81549073ffffffffffffffffffffffffffffffffffffffff021916905581600073ffffffffffffffffffffffffffffffffffffffff168273ffffffffffffffffffffffffffffffffffffffff167fddf252ad1be2c89b69c2b068fc378daa952ba7f163c4a11628f55a4df523b3ef60405160405180910390a45050565b611ea8838361223d565b611eb56000848484611ef9565b611ef4576040517f08c379a0000000000000000000000000000000000000000000000000000000008152600401611eeb90613211565b60405180910390fd5b505050565b6000611f1a8473ffffffffffffffffffffffffffffffffffffffff1661240b565b15612083578373ffffffffffffffffffffffffffffffffffffffff1663150b7a02611f4361178e565b8786866040518563ffffffff1660e01b8152600401611f65949392919061313d565b602060405180830381600087803b158015611f7f57600080fd5b505af1925050508015611fb057506040513d601f19601f82011682018060405250810190611fad919061280a565b60015b612033573d8060008114611fe0576040519150601f19603f3d011682016040523d82523d6000602084013e611fe5565b606091505b5060008151141561202b576040517f08c379a000000000000000000000000000000000000000000000000000000000815260040161202290613211565b60405180910390fd5b805181602001fd5b63150b7a0260e01b7bffffffffffffffffffffffffffffffffffffffffffffffffffffffff1916817bffffffffffffffffffffffffffffffffffffffffffffffffffffffff191614915050612088565b600190505b949350505050565b606060008214156120d8576040518060400160405280600181526020017f30000000000000000000000000000000000000000000000000000000000000008152509050612238565b600082905060005b6000821461210a5780806120f390613745565b915050600a8261210391906135f8565b91506120e0565b60008167ffffffffffffffff81111561214c577f4e487b7100000000000000000000000000000000000000000000000000000000600052604160045260246000fd5b6040519080825280601f01601f19166020018201604052801561217e5781602001600182028036833780820191505090505b5090505b60008514612231576001826121979190613629565b9150600a856121a6919061378e565b60306121b291906135a2565b60f81b8183815181106121ee577f4e487b7100000000000000000000000000000000000000000000000000000000600052603260045260246000fd5b60200101907effffffffffffffffffffffffffffffffffffffffffffffffffffffffffffff1916908160001a905350600a8561222a91906135f8565b9450612182565b8093505050505b919050565b600073ffffffffffffffffffffffffffffffffffffffff168273ffffffffffffffffffffffffffffffffffffffff1614156122ad576040517f08c379a00000000000000000000000000000000000000000000000000000000081526004016122a490613371565b60405180910390fd5b6122b681611722565b156122f6576040517f08c379a00000000000000000000000000000000000000000000000000000000081526004016122ed90613231565b60405180910390fd5b61230260008383611d88565b6001600360008473ffffffffffffffffffffffffffffffffffffffff1673ffffffffffffffffffffffffffffffffffffffff168152602001908152602001600020600082825461235291906135a2565b92505081905550816002600083815260200190815260200160002060006101000a81548173ffffffffffffffffffffffffffffffffffffffff021916908373ffffffffffffffffffffffffffffffffffffffff160217905550808273ffffffffffffffffffffffffffffffffffffffff16600073ffffffffffffffffffffffffffffffffffffffff167fddf252ad1be2c89b69c2b068fc378daa952ba7f163c4a11628f55a4df523b3ef60405160405180910390a45050565b600080823b905060008111915050919050565b50805461242a90613713565b6000825580601f1061243c575061245b565b601f01602090049060005260206000209081019061245a91906124e4565b5b50565b82805461246a90613713565b90600052602060002090601f01602090048101928261248c57600085556124d3565b82601f106124a557805160ff19168380011785556124d3565b828001600101855582156124d3579182015b828111156124d25782518255916020019190600101906124b7565b5b5090506124e091906124e4565b5090565b5b808211156124fd5760008160009055506001016124e5565b5090565b600061251461250f846134c6565b613495565b90508281526020810184848401111561252c57600080fd5b6125378482856136d1565b509392505050565b600061255261254d846134f6565b613495565b90508281526020810184848401111561256a57600080fd5b6125758482856136d1565b509392505050565b60008135905061258c8161388c565b92915050565b6000813590506125a1816138a3565b92915050565b6000813590506125b6816138ba565b92915050565b6000815190506125cb816138ba565b92915050565b600082601f8301126125e257600080fd5b81356125f2848260208601612501565b91505092915050565b600082601f83011261260c57600080fd5b813561261c84826020860161253f565b91505092915050565b600081359050612634816138d1565b92915050565b60006020828403121561264c57600080fd5b600061265a8482850161257d565b91505092915050565b6000806040838503121561267657600080fd5b60006126848582860161257d565b92505060206126958582860161257d565b9150509250929050565b6000806000606084860312156126b457600080fd5b60006126c28682870161257d565b93505060206126d38682870161257d565b92505060406126e486828701612625565b9150509250925092565b6000806000806080858703121561270457600080fd5b60006127128782880161257d565b94505060206127238782880161257d565b935050604061273487828801612625565b925050606085013567ffffffffffffffff81111561275157600080fd5b61275d878288016125d1565b91505092959194509250565b6000806040838503121561277c57600080fd5b600061278a8582860161257d565b925050602061279b85828601612592565b9150509250929050565b600080604083850312156127b857600080fd5b60006127c68582860161257d565b92505060206127d785828601612625565b9150509250929050565b6000602082840312156127f357600080fd5b6000612801848285016125a7565b91505092915050565b60006020828403121561281c57600080fd5b600061282a848285016125bc565b91505092915050565b60006020828403121561284557600080fd5b600061285384828501612625565b91505092915050565b6000806040838503121561286f57600080fd5b600061287d85828601612625565b925050602061288e8582860161257d565b9150509250929050565b600080604083850312156128ab57600080fd5b60006128b985828601612625565b925050602083013567ffffffffffffffff8111156128d657600080fd5b6128e2858286016125fb565b9150509250929050565b60008060006060848603121561290157600080fd5b600061290f86828701612625565b935050602061292086828701612625565b925050604061293186828701612592565b9150509250925092565b600061294783836130e0565b60208301905092915050565b61295c8161365d565b82525050565b600061296d82613536565b6129778185613564565b935061298283613526565b8060005b838110156129b357815161299a888261293b565b97506129a583613557565b925050600181019050612986565b5085935050505092915050565b6129c98161366f565b82525050565b60006129da82613541565b6129e48185613575565b93506129f48185602086016136e0565b6129fd8161387b565b840191505092915050565b6000612a138261354c565b612a1d8185613586565b9350612a2d8185602086016136e0565b612a368161387b565b840191505092915050565b6000612a4c8261354c565b612a568185613597565b9350612a668185602086016136e0565b80840191505092915050565b6000612a7f603283613586565b91507f4552433732313a207472616e7366657220746f206e6f6e20455243373231526560008301527f63656976657220696d706c656d656e74657200000000000000000000000000006020830152604082019050919050565b6000612ae5601c83613586565b91507f4552433732313a20746f6b656e20616c7265616479206d696e746564000000006000830152602082019050919050565b6000612b25601483613586565b91507f546f6b656e206973206e6f74206f776e656420210000000000000000000000006000830152602082019050919050565b6000612b65602483613586565b91507f4552433732313a207472616e7366657220746f20746865207a65726f2061646460008301527f72657373000000000000000000000000000000000000000000000000000000006020830152604082019050919050565b6000612bcb601983613586565b91507f4552433732313a20617070726f766520746f2063616c6c6572000000000000006000830152602082019050919050565b6000612c0b602c83613586565b91507f4552433732313a206f70657261746f7220717565727920666f72206e6f6e657860008301527f697374656e7420746f6b656e00000000000000000000000000000000000000006020830152604082019050919050565b6000612c71603883613586565b91507f4552433732313a20617070726f76652063616c6c6572206973206e6f74206f7760008301527f6e6572206e6f7220617070726f76656420666f7220616c6c00000000000000006020830152604082019050919050565b6000612cd7602a83613586565b91507f4552433732313a2062616c616e636520717565727920666f7220746865207a6560008301527f726f2061646472657373000000000000000000000000000000000000000000006020830152604082019050919050565b6000612d3d602983613586565b91507f4552433732313a206f776e657220717565727920666f72206e6f6e657869737460008301527f656e7420746f6b656e00000000000000000000000000000000000000000000006020830152604082019050919050565b6000612da3602e83613586565b91507f45524337323155524953746f726167653a2055524920736574206f66206e6f6e60008301527f6578697374656e7420746f6b656e0000000000000000000000000000000000006020830152604082019050919050565b6000612e09601483613586565b91507f546f6b656e206973206e6f7420657869737420210000000000000000000000006000830152602082019050919050565b6000612e49602083613586565b91507f4552433732313a206d696e7420746f20746865207a65726f20616464726573736000830152602082019050919050565b6000612e89603183613586565b91507f45524337323155524953746f726167653a2055524920717565727920666f722060008301527f6e6f6e6578697374656e7420746f6b656e0000000000000000000000000000006020830152604082019050919050565b6000612eef602c83613586565b91507f4552433732313a20617070726f76656420717565727920666f72206e6f6e657860008301527f697374656e7420746f6b656e00000000000000000000000000000000000000006020830152604082019050919050565b6000612f55602983613586565b91507f4552433732313a207472616e73666572206f6620746f6b656e2074686174206960008301527f73206e6f74206f776e00000000000000000000000000000000000000000000006020830152604082019050919050565b6000612fbb602f83613586565b91507f4552433732314d657461646174613a2055524920717565727920666f72206e6f60008301527f6e6578697374656e7420746f6b656e00000000000000000000000000000000006020830152604082019050919050565b6000613021602183613586565b91507f4552433732313a20617070726f76616c20746f2063757272656e74206f776e6560008301527f72000000000000000000000000000000000000000000000000000000000000006020830152604082019050919050565b6000613087603183613586565b91507f4552433732313a207472616e736665722063616c6c6572206973206e6f74206f60008301527f776e6572206e6f7220617070726f7665640000000000000000000000000000006020830152604082019050919050565b6130e9816136c7565b82525050565b6130f8816136c7565b82525050565b600061310a8285612a41565b91506131168284612a41565b91508190509392505050565b60006020820190506131376000830184612953565b92915050565b60006080820190506131526000830187612953565b61315f6020830186612953565b61316c60408301856130ef565b818103606083015261317e81846129cf565b905095945050505050565b600060408201905061319e6000830185612953565b6131ab60208301846130ef565b9392505050565b600060208201905081810360008301526131cc8184612962565b905092915050565b60006020820190506131e960008301846129c0565b92915050565b600060208201905081810360008301526132098184612a08565b905092915050565b6000602082019050818103600083015261322a81612a72565b9050919050565b6000602082019050818103600083015261324a81612ad8565b9050919050565b6000602082019050818103600083015261326a81612b18565b9050919050565b6000602082019050818103600083015261328a81612b58565b9050919050565b600060208201905081810360008301526132aa81612bbe565b9050919050565b600060208201905081810360008301526132ca81612bfe565b9050919050565b600060208201905081810360008301526132ea81612c64565b9050919050565b6000602082019050818103600083015261330a81612cca565b9050919050565b6000602082019050818103600083015261332a81612d30565b9050919050565b6000602082019050818103600083015261334a81612d96565b9050919050565b6000602082019050818103600083015261336a81612dfc565b9050919050565b6000602082019050818103600083015261338a81612e3c565b9050919050565b600060208201905081810360008301526133aa81612e7c565b9050919050565b600060208201905081810360008301526133ca81612ee2565b9050919050565b600060208201905081810360008301526133ea81612f48565b9050919050565b6000602082019050818103600083015261340a81612fae565b9050919050565b6000602082019050818103600083015261342a81613014565b9050919050565b6000602082019050818103600083015261344a8161307a565b9050919050565b600060208201905061346660008301846130ef565b92915050565b600060408201905061348160008301856130ef565b61348e60208301846129c0565b9392505050565b6000604051905081810181811067ffffffffffffffff821117156134bc576134bb61384c565b5b8060405250919050565b600067ffffffffffffffff8211156134e1576134e061384c565b5b601f19601f8301169050602081019050919050565b600067ffffffffffffffff8211156135115761351061384c565b5b601f19601f8301169050602081019050919050565b6000819050602082019050919050565b600081519050919050565b600081519050919050565b600081519050919050565b6000602082019050919050565b600082825260208201905092915050565b600082825260208201905092915050565b600082825260208201905092915050565b600081905092915050565b60006135ad826136c7565b91506135b8836136c7565b9250827fffffffffffffffffffffffffffffffffffffffffffffffffffffffffffffffff038211156135ed576135ec6137bf565b5b828201905092915050565b6000613603826136c7565b915061360e836136c7565b92508261361e5761361d6137ee565b5b828204905092915050565b6000613634826136c7565b915061363f836136c7565b925082821015613652576136516137bf565b5b828203905092915050565b6000613668826136a7565b9050919050565b60008115159050919050565b60007fffffffff0000000000000000000000000000000000000000000000000000000082169050919050565b600073ffffffffffffffffffffffffffffffffffffffff82169050919050565b6000819050919050565b82818337600083830152505050565b60005b838110156136fe5780820151818401526020810190506136e3565b8381111561370d576000848401525b50505050565b6000600282049050600182168061372b57607f821691505b6020821081141561373f5761373e61381d565b5b50919050565b6000613750826136c7565b91507fffffffffffffffffffffffffffffffffffffffffffffffffffffffffffffffff821415613783576137826137bf565b5b600182019050919050565b6000613799826136c7565b91506137a4836136c7565b9250826137b4576137b36137ee565b5b828206905092915050565b7f4e487b7100000000000000000000000000000000000000000000000000000000600052601160045260246000fd5b7f4e487b7100000000000000000000000000000000000000000000000000000000600052601260045260246000fd5b7f4e487b7100000000000000000000000000000000000000000000000000000000600052602260045260246000fd5b7f4e487b7100000000000000000000000000000000000000000000000000000000600052604160045260246000fd5b6000601f19601f8301169050919050565b6138958161365d565b81146138a057600080fd5b50565b6138ac8161366f565b81146138b757600080fd5b50565b6138c38161367b565b81146138ce57600080fd5b50565b6138da816136c7565b81146138e557600080fd5b5056fea2646970667358221220e4db41a30646358fc6d50179aad54702e62c237c9b0852231721162480c2545164736f6c63430008000033",
  "immutableReferences": {},
  "source": "// SPDX-License-Identifier: MIT\npragma solidity ^0.8.0;\n\nimport \"@openzeppelin/contracts/token/ERC721/extensions/ERC721URIStorage.sol\";\n    \ncontract MyNFT is ERC721URIStorage {\n    mapping (uint =>TokenInfo) public forSale ;\n    event Mint(address recipient, uint tokenId);\n    constructor() ERC721(\"MyNFT\", \"NFT\") {}\n    \n    mapping(address => uint[]) listIdOfOwner;\n    uint[] public listIdSale;\n\n    struct TokenInfo {\n        uint price;\n        bool sale;\n    }\n    \n    // Create NFT\n    function mintToken(uint _idToken, string memory tokenURI) public returns (uint)\n    {\n        _safeMint(msg.sender, _idToken);\n        _setTokenURI(_idToken, tokenURI);\n        listIdOfOwner[msg.sender].push(_idToken);\n        emit Mint(msg.sender, _idToken);\n        return _idToken;\n    }\n    \n    function getListIdOfOwner(address owner) public view returns(uint[] memory) {\n        return listIdOfOwner[owner];\n    }\n    \n    function addListIdOfOwner(uint _idToken, address owner) public {\n        listIdOfOwner[owner].push(_idToken);\n    }\n    \n    function removeListIdOfOwner(uint _idToken, address owner) public {\n        for (uint i=0; i < listIdOfOwner[owner].length; i++) {\n            if (listIdOfOwner[owner][i] == _idToken) {\n                listIdOfOwner[owner][i] = listIdOfOwner[owner][listIdOfOwner[owner].length - 1];\n                listIdOfOwner[owner].pop();\n            }\n        }\n    }\n    \n     function getListIdSale() public view returns(uint[] memory) {\n        return listIdSale;\n    }\n    \n    function addListIdSale(uint _tokenId) public {\n        return listIdSale.push(_tokenId);\n    }\n    \n    function removeListIdSale(uint _tokenId) public {\n        for (uint i = 0; i < listIdSale.length; i++) {\n            if (listIdSale[i] == _tokenId) {\n                listIdSale[i] = listIdSale[listIdSale.length - 1];\n                listIdSale.pop();\n            }\n        }\n    }\n    \n    function setStatus(uint _tokenID, uint _price, bool _sale) public{\n        forSale[_tokenID].price = _price;\n        forSale[_tokenID].sale = _sale;\n    }\n    \n\n    // UnSale nft \n    function unSale(uint _idToken) public{\n        setStatus(_idToken, 0, false);\n        approve(address(0),_idToken);\n        removeListIdSale(_idToken);\n        \n    }\n\n    //delete token\n    function deleteToken(uint _tokenId) public  {\n        require (_exists(_tokenId) , \"Token is not exist !\");\n        require (ownerOf(_tokenId) == msg.sender ,  \"Token is not owned !\" );\n        _burn(_tokenId);\n    }\n    //Check exists of token\n    function exists(uint _tokenId) public view returns (bool) {\n        return _exists(_tokenId);\n    }\n}",
  "sourcePath": "/home/tungdaik/Desktop/Demo/nft_web3/contracts/MyNFT.sol",
  "compiler": {
    "name": "solc",
    "version": "0.8.0+commit.c7dfd78e.Emscripten.clang"
  },
  "schemaVersion": "3.4.1",
  "updatedAt": "2021-06-01T08:45:33.153Z",
  "devdoc": {
    "kind": "dev",
    "methods": {
      "approve(address,uint256)": {
        "details": "See {IERC721-approve}."
      },
      "balanceOf(address)": {
        "details": "See {IERC721-balanceOf}."
      },
      "getApproved(uint256)": {
        "details": "See {IERC721-getApproved}."
      },
      "isApprovedForAll(address,address)": {
        "details": "See {IERC721-isApprovedForAll}."
      },
      "name()": {
        "details": "See {IERC721Metadata-name}."
      },
      "ownerOf(uint256)": {
        "details": "See {IERC721-ownerOf}."
      },
      "safeTransferFrom(address,address,uint256)": {
        "details": "See {IERC721-safeTransferFrom}."
      },
      "safeTransferFrom(address,address,uint256,bytes)": {
        "details": "See {IERC721-safeTransferFrom}."
      },
      "setApprovalForAll(address,bool)": {
        "details": "See {IERC721-setApprovalForAll}."
      },
      "supportsInterface(bytes4)": {
        "details": "See {IERC165-supportsInterface}."
      },
      "symbol()": {
        "details": "See {IERC721Metadata-symbol}."
      },
      "tokenURI(uint256)": {
        "details": "See {IERC721Metadata-tokenURI}."
      },
      "transferFrom(address,address,uint256)": {
        "details": "See {IERC721-transferFrom}."
      }
    },
    "version": 1
  },
  "userdoc": {
    "kind": "user",
    "methods": {},
    "version": 1
  }
}